:020000040000fa
:080000000002040000000000f2
:020000040000fa
:040008004a030000a7
:020000040000fa
:04000c00c802000026
:020000040000fa
:040010000a030000df
:020000040000fa
:04001400e8020000fe
:020000040000fa
:040018002a030000b7
:020000040000fa
:04001c004a03000093
:020000040000fa
:040020004a0300008f
:020000040000fa
:040024004a0300008b
:020000040000fa
:040028004a03000087
:020000040000fa
:04002c004a03000083
:020000040000fa
:040030004a0300007f
:020000040000fa
:040034004a0300007b
:020000040000fa
:040038004a03000077
:020000040000fa
:04003c004a03000073
:020000040000fa
:040040004a0300006f
:020000040000fa
:040044004a0300006b
:020000040000fa
:040048004a03000067
:020000040000fa
:04004c004a03000063
:020000040000fa
:040050004a0300005f
:020000040000fa
:040054004a0300005b
:020000040000fa
:040058004a03000057
:020000040000fa
:04005c004a03000053
:020000040000fa
:040060004a0300004f
:020000040000fa
:040064004a0300004b
:020000040000fa
:040068004a03000047
:020000040000fa
:04006c004a03000043
:020000040000fa
:040070004a0300003f
:020000040000fa
:040074004a0300003b
:020000040000fa
:040078004a03000037
:020000040000fa
:04007c004a03000033
:020000040000fa
:040080004a0300002f
:020000040000fa
:040084004a0300002b
:020000040000fa
:040088004a03000027
:020000040000fa
:04008c004a03000023
:020000040000fa
:040090004a0300001f
:020000040000fa
:040094004a0300001b
:020000040000fa
:040098004a03000017
:020000040000fa
:04009c004a03000013
:020000040000fa
:0400a0004a0300000f
:020000040000fa
:0400a4004a0300000b
:020000040000fa
:0400a8004a03000007
:020000040000fa
:0400ac004a03000003
:020000040000fa
:0400b0004a030000ff
:020000040000fa
:0400b4004a030000fb
:020000040000fa
:0400b8004a030000f7
:020000040000fa
:0400bc004a030000f3
:020000040000fa
:0400c0004a030000ef
:020000040000fa
:0400c4004a030000eb
:020000040000fa
:0400c8004a030000e7
:020000040000fa
:0400cc004a030000e3
:020000040000fa
:0400d0004a030000df
:020000040000fa
:0400d4004a030000db
:020000040000fa
:0400d8004a030000d7
:020000040000fa
:0400dc004a030000d3
:020000040000fa
:0400e0004a030000cf
:020000040000fa
:0400e4004a030000cb
:020000040000fa
:0400e8004a030000c7
:020000040000fa
:0400ec004a030000c3
:020000040000fa
:0400f0004a030000bf
:020000040000fa
:0400f4004a030000bb
:020000040000fa
:0400f8004a030000b7
:020000040000fa
:0400fc004a030000b3
:020000040000fa
:040100004a030000ae
:020000040000fa
:040104004a030000aa
:020000040000fa
:040108004a030000a6
:020000040000fa
:04010c004a030000a2
:020000040000fa
:040110004a0300009e
:020000040000fa
:040114004a0300009a
:020000040000fa
:040118004a03000096
:020000040000fa
:04011c004a03000092
:020000040000fa
:040120004a0300008e
:020000040000fa
:040124004a0300008a
:020000040000fa
:040128004a03000086
:020000040000fa
:04012c004a03000082
:020000040000fa
:040130004a0300007e
:020000040000fa
:040134004a0300007a
:020000040000fa
:040208004a030000a5
:020000040000fa
:04020c00c802000024
:020000040000fa
:040210000a030000dd
:020000040000fa
:04021400e8020000fc
:020000040000fa
:040218002a030000b5
:020000040000fa
:04021c004a03000091
:020000040000fa
:040220004a0300008d
:020000040000fa
:040224004a03000089
:020000040000fa
:040228004a03000085
:020000040000fa
:04022c004a03000081
:020000040000fa
:040230004a0300007d
:020000040000fa
:040234004a03000079
:020000040000fa
:040238004a03000075
:020000040000fa
:04023c004a03000071
:020000040000fa
:040240004a0300006d
:020000040000fa
:040244004a03000069
:020000040000fa
:040248004a03000065
:020000040000fa
:04024c004a03000061
:020000040000fa
:040250004a0300005d
:020000040000fa
:040254004a03000059
:020000040000fa
:040258004a03000055
:020000040000fa
:04025c004a03000051
:020000040000fa
:040260004a0300004d
:020000040000fa
:040264004a03000049
:020000040000fa
:040268004a03000045
:020000040000fa
:04026c004a03000041
:020000040000fa
:040270004a0300003d
:020000040000fa
:040274004a03000039
:020000040000fa
:040278004a03000035
:020000040000fa
:04027c004a03000031
:020000040000fa
:040280004a0300002d
:020000040000fa
:040284004a03000029
:020000040000fa
:040288004a03000025
:020000040000fa
:04028c004a03000021
:020000040000fa
:040290004a0300001d
:020000040000fa
:040294004a03000019
:020000040000fa
:040298004a03000015
:020000040000fa
:04029c004a03000011
:020000040000fa
:0402a0004a0300000d
:020000040000fa
:0402a4004a03000009
:020000040000fa
:0402a8004a03000005
:020000040000fa
:0402ac004a03000001
:020000040000fa
:0402b0004a030000fd
:020000040000fa
:0402b4004a030000f9
:020000040000fa
:0402b8004a030000f5
:020000040000fa
:0402bc004a030000f1
:020000040000fa
:0402c0004a030000ed
:020000040000fa
:0402c4004a030000e9
:020000040000fa
:0402c8004a030000e5
:020000040000fa
:0402cc004a030000e1
:020000040000fa
:0402d0004a030000dd
:020000040000fa
:0402d4004a030000d9
:020000040000fa
:0402d8004a030000d5
:020000040000fa
:0402dc004a030000d1
:020000040000fa
:0402e0004a030000cd
:020000040000fa
:0402e4004a030000c9
:020000040000fa
:0402e8004a030000c5
:020000040000fa
:0402ec004a030000c1
:020000040000fa
:0402f0004a030000bd
:020000040000fa
:0402f4004a030000b9
:020000040000fa
:0402f8004a030000b5
:020000040000fa
:0402fc004a030000b1
:020000040000fa
:040300004a030000ac
:020000040000fa
:040304004a030000a8
:020000040000fa
:040308004a030000a4
:020000040000fa
:04030c004a030000a0
:020000040000fa
:040310004a0300009c
:020000040000fa
:040314004a03000098
:020000040000fa
:040318004a03000094
:020000040000fa
:04031c004a03000090
:020000040000fa
:040320004a0300008c
:020000040000fa
:040324004a03000088
:020000040000fa
:040328004a03000084
:020000040000fa
:04032c004a03000080
:020000040000fa
:040330004a0300007c
:020000040000fa
:040334004a03000078
:020000040000fa
:10040000ef8320000e7f22000e0188000000000014
:10041000000020000000e000020032000001200087
:1004200020028800140007009c0007000000e00084
:1004300003003a0060f020000100200002003700b5
:100440000000200001002000810f70000100320038
:1004500014000700000020000000e000020032004d
:100460000000020000000000120d02000000000069
:100470000040da000000fe004440a9000000200017
:100480000000e0000300320000002000a00188000e
:100490004440a800000006008a1f78008b1f7800e7
:1004a0000000060091018800800478000000eb0045
:1004b0001a003700e284440032a0b4009905ba0063
:1004c000e284440032a0b4009906ba00e2844400f9
:1004d00032a0b4000006eb00476fde00fd07b2005b
:1004e000636ce10003003a00ebff07000000eb0043
:1004f0000a003700606ce10004003a00005deb0088
:100500008b05e900fdff3e00040037006168e10053
:10051000010032000086eb000b00070019c7ba008b
:100520001905ba000e04e00003003a000a00e000da
:10053000e0ff3a0000000600fe07b2009e018800be
:100540008a047800f5ff3700395dba008b05e900b1
:100550000c003200295dba008b05e900080032006a
:100560000c00e00003003a00e284440032a0b40032
:10057000f5ff370019ddba008b05e900faff3a00f4
:100580008904e800e184440032a0b40000000600c1
:100590003600f800809fbe00829fbe00849fbe0090
:1005a000869fbe000000fa008020a9000000eb003a
:1005b000260607000080fa004f03be004f02be006f
:1005c0004f01be004f00be003600f900004006009b
:1005d0003600f800809fbe00829fbe00849fbe0050
:1005e000869fbe000000fa001d0607008040a9009b
:1005f00010002000150607000080fa004f03be001f
:100600004f02be004f01be004f00be003600f90091
:10061000004006003600f800809fbe00829fbe00aa
:10062000849fbe00869fbe000000fa008060a90083
:1006300020002000050607000080fa004f03be00de
:100640004f02be004f01be004f00be003600f90051
:10065000004006003600f800809fbe00829fbe006a
:10066000849fbe00869fbe000000fa008080a90023
:1006700030002000f50507000080fa004f03be009f
:100680004f02be004f01be004f00be003600f90011
:10069000004006000040da000000fe0000000500f7
:1006a00003f0a200889fbe008a9fbe008c1f7800c6
:1006b0001b010700220133006450e1004f003200ab
:1006c0006420e1005200320003826c0007003b000e
:1006d0000905d0000306d000820f54000c065d000f
:1006e0000200390002003200890178000306780018
:1006f0008582550004003d000003fd008103fd00dc
:100700008502ea008b854200840f720002003b00e4
:1007100060001000e08018006011b8000005eb00d8
:100720007a28e1000a00390006007800c75ddd0084
:10073000f707b200878075002d00370082817100b5
:100740000a017800610560008180d1000080d3003b
:100750008502e900f9ff3b00060440008784480059
:1007600002003b0060041400e0841c000988a30020
:10077000070032008a81710082817100610164008a
:100780008904d1000884d3008b05e80017003700e6
:100790000978a30013003a000b00e00013003400b6
:1007a0008b05e9000804440089844c000a44740065
:1007b0000978a3000d003a000b00e00007003400a8
:1007c0008b05e9000804440089844c0001003a00cc
:1007d0000b0020000978a300f7ff32000001eb00b6
:1007e00002003700828171000a0178009100070041
:1007f0000cf0a70001f0a000da0037006420e1004f
:1008000002003a00838f6c00da0033000801be005a
:100810000200be00d3003700889fbe008a9fbe0042
:100820008c1f7800be000700c500330003866c00f3
:100830006450e1002e0032006420e10033003200f9
:100840006150e1002f0032006120e10031003200f0
:1008500085855500eb07b000090020000804200042
:10086000050037000804440089844c000a00310068
:100870000603430087834b000001530081815b0026
:10088000f8ff33000203be000800a0000804440083
:1008900089844c00f6ff3900c639dd0083017300fe
:1008a00001003200130020008904d1000884d30025
:1008b0000998a300050032000800a7000300a0006b
:1008c0008904d1000884d3008b05e8008904d10095
:1008d0000884d3000001eb000281d200550007001c
:1008e00001f0a1000cf0a70001f0a0009d0037006e
:1008f0006420e1009f0032000801be000200be003b
:10090000f7ff37006120e1009a0032006000b80074
:10091000f3ff37000000200001f82700f0ff370048
:1009200014002000ca003700f4ff2f00c800370071
:100930000001be00650007000470a70003f0a100dd
:100940006509b100160032000d0035006828e1008d
:1009500006003500f0ff2f00f1ff27000300e00044
:1009600013003b00010028000000050000004000cb
:10097000818048008502e900fcff3a00080037004a
:10098000f88f420002003c008000eb0000000500f0
:100990008100d1000080d3008502e800fcff3a000e
:1009a0000300e00002003b0060001000e08018003f
:1009b000000006000001be00440007000470a7000c
:1009c00003f0a10003f8a30013003a006509b10089
:1009d00010003200090035006928e10002003500ee
:1009e0000100280000000500000040008180480050
:1009f0008502e900fcff3a0000000600f88f420083
:100a0000050035008100d1000080d3008502e80098
:100a1000fcff3a00000006008000eb00000005002b
:100a20004f89de0082017800a40037000400200016
:100a30008700370081002000618055000b003d00d9
:100a40000b00200061fe2f000100e1001d003400ba
:100a500082817100610164008904d1000884d3009f
:100a60000000e800faff3a00710020006100640015
:100a700003007000020060000900320061044400bd
:100a8000e0844c000988a500050032008b05e800d1
:100a90006808e10002003a008904d1000884d3000c
:100aa000f20f20000258e10005003d00c75ddd00a7
:100ab000f907b20089807500080078000000060080
:100ac0000bf827008b00780000000500c70ade0045
:100ad000f107b200f50fb20008003200e1cf42008a
:100ae000020032000170a00024000500810f700098
:100af000010032000408050044000500810f700069
:100b000002003a00140005008502e90000004000e0
:100b100081c04800fcff3b000170a00024000500dc
:100b20000004be00e9ff07000003be000405be008c
:100b30000200be00e5ff0700844f750000000600bc
:100b40000200be006450e100050036006420e100b0
:100b5000020036000968a30001003a000800be0048
:100b60000160a0004f0678004f05be004f04be0094
:100b700000000600f0ff2f00f1ff2700f9ff37000b
:100b8000889fbe008a9fbe008c1f7800e4ff07008c
:100b9000ebff330003866c006450e1002400320058
:100ba0006420e100270032006150e10022003200a1
:100bb0006120e100210032008b854200eb07b1008b
:100bc0000134b800003ab8000804420089844a00a1
:100bd000013ab8000030b8008880400009014a009e
:100be00004003300000040008180480002014900f9
:100bf0008b05e900c909dd008301700001003200a6
:100c000013002000c814de004814dd004709de0090
:100c10001200b200c808de000884700085ff0700db
:100c200001f0a1000cf0a70001f0a000cdff3700fb
:100c30006120e100cfff32000801be000200be00cb
:100c4000f7ff37006150e100fcff3a00c9ff3700b1
:100c5000889fbe008a9fbe00841f7800b0ff0700f7
:100c60004f00780011003300f0ff2f00838f6c00dd
:100c700006003b00040565000a00a70008003700d5
:100c800009f0a6001000200008003700820f540071
:100c9000838f5c00030039001000200001003e003b
:100ca0000000200009f0a7000000ea004f05be0088
:100cb0004f04be000000e00000000600881f78001e
:100cc000030478000300e00007003d00600010000e
:100cd000e080180060011900e081190002003b006b
:100ce00001f02d00030037000400070008f0a70002
:100cf00001f0a0004f04780000000600889fbe00ad
:100d00008a9fbe000082700004027100048271009c
:100d1000260032000004be000200be006011b800d0
:100d20006b092000950220000182cf000a003900e3
:100d30000541b1000082cf00070039000541b10034
:100d40000982cf00040039000541b1000882cf00bc
:100d5000010039000541b100054252001200320085
:100d60000a003b0082817100610164008100d100b2
:100d70000080d3008984d3000884d3008b05e80069
:100d80000442e800f7ff3a00070037000804440077
:100d900089844c0000004800818048008b05e900f0
:100da0000442e900f9ff3a0022ff07004f05be00a8
:080db0004f04be000000060024
:020000040000fa
:100db8000600fa00000f7800110798002207980033
:100dc8001e007800ae009000210098001e007800f8
:100dd8009e009000110098001e0178006000b80085
:100de80000119800111198001e0178006000b800e9
:100df80060099800710998001e0178006000b80029
:100e080070019800010998001e0178000000200078
:100e18000112240010099800210998001e01780089
:100e28006000b80030099800410998001e01780058
:100e38006000b80030019800410198001e00780059
:100e480011002000211098001e0178006000b800f1
:100e580050019800610198001e0178006000b800f8
:100e680030119800411198001e0178006000b80008
:100e780050119800611198001e0178006000b800b8
:100e880070119800011998001e01780000002000d8
:100e980001f8230010199800211998001e00780005
:100ea80011002000510898000080fa000000060098
:100eb8000200fa00000f78001e0078006009900018
:100ec800f00990001e00780090109000001090002b
:100ed80000005100818059000080fa0000000600df
:100ee8000600fa00881f7800000f780012079800a3
:100ef800230798001e00780080089000700090007a
:100f08001e019000ae01900083fe07000000e00083
:100f1800620032001e007800a008900010089000bf
:100f280001f0a20018c0b3001e019000ae019000ad
:100f38007bfe07000000e00001003c000044eb00dd
:100f48000804e000050032001e007800a0089000a8
:100f58001008900001f0a200120037001e0078006f
:100f6800a00890001008900018c0b3001e0190005f
:100f7800ae01900068fe07000000e00001003500a7
:100f88000044eb000804e000040032001e00780072
:100f9800a008900010089000020037001e00900082
:100fa800ae00900010079800210798006011b80063
:100fb8001e009000ae00900057fe07000000e00001
:100fc80005003a001e0178006000b8003001980062
:100fd800410198002b0037001e019000ae019000df
:100fe800004022004197240009fe070018c0b30002
:100ff8006011b8004afe07000000e00001003c0054
:101008000044eb000804e000070032001e019000d5
:10101800ae0190000040220041972400fcfd07002b
:1010280062fe0700070037001e019000ae01900025
:101038000040220041972400f5fd070001f0a200be
:101048005afe07001e0178003001980041019800ff
:1010580018c0b3006011b8001e009000ae009000e8
:101068002ffe07000000e00001003c000044eb00f8
:10107800084078000004a2008080fb001e00780071
:10108800510898001e0078001e019000ae019000e3
:101098007200980003089800010037000000000063
:1010a8004f0478000080fa00000006000a00fa00e9
:1010b800889fbe008a9fbe00400798004e0090009f
:1010c8007bff0700008fbe004e009000700290006a
:1010d800800a90004e0090008008900070009000f8
:1010e8000001be000400be00a3fe07000004be000d
:1010f8004e009000c0089000300890000001be002b
:1011080066fd07000001be000800be00c0fd070024
:1011180005fe070020079800310798001e00be0052
:10112800e00f5000e08f580014003a002e019000a4
:10113800be0190001000200001002000800f510027
:10114800818f59000d003c004e0190006000b800ee
:1011580030019800410198004e0190006000b800ed
:1011680070019800010998004e0190006000b800d5
:101178003011980041119800d90037001e00be00b8
:10118800e00f5000e08f58002f0034004e00900010
:10119800c010900030109000e00f5000e08f580011
:1011a800110034002e009000be009000be0f5000c9
:1011b800ae8f580004003d004e009000500890008b
:1011c800e10f500058003a002e009000be00900039
:1011d80060001000e08018004e0190003011980067
:1011e80041119800500037004e009000c010900048
:1011f80030109000e00f5000e08f58004a003d008a
:101208002e009000be009000be0f5000ae8f580018
:1012180045003d004e009000500890000000e0009e
:1012280041003a004e009000c0109000301090002d
:1012380060001000e08018004e0190003011980006
:1012480041119800380037001e00be00e00f500022
:10125800e08f580034003d004e009000c010900010
:1012680030109000e00f5000e08f58001400340058
:101278001e00be0060011000e08118002e009000e2
:10128800be009000800f5100818f59000400340087
:101298004e009000500890000000e00022003a0044
:1012a8002e009000be00900060001000e080180042
:1012b8004e01900030119800411198001a00370033
:1012c8004e009000c010900030109000e00f5000c9
:1012d800e08f580014003d001e00be0060011000a1
:1012e800e08118002e009000be009000800f510091
:1012f800818f59000c0034004e0090005008900077
:10130800e10f500008003a004e009000c010900015
:101318003010900060001000e08018004e0190002e
:1013280030119800411198004e009000c0109000b4
:1013380030109000e00f5000e08f58000f003a0086
:101348004e009000e0109000501090004e01900068
:101358007011980001199800120020001e00be00ac
:10136800e00f5000e08f5800010034000001eb004e
:101378004e00900052089800350037004e0090004b
:1013880070149000801c90004e009000801890000f
:10139800701090000001be00c0fc07000005be00f0
:1013a8004e009000c0109000301090009afd070089
:1013b8000200200003082400effd070002002000bf
:1013c80003f82300b5fc07000001be000a00be00b8
:1013d8000ffd07000001be000800be00aefc0700bc
:1013e8004e01900070119800011998004e0090006d
:1013f80070129000801a90004e009000a018900083
:101408001018900018c0b3000001be000400be0010
:1014180043fd07000000e00001003c000044eb0031
:101428000804e000040032004e009000801890008c
:1014380070109000030037004e009000a018900034
:10144800101890004e019000701198000119980032
:101458004e009000c01090003010900061004000d5
:10146800e08048004e01900030119800411198002a
:101478004e00900080189000701090004bfd0700ff
:101488004e01900030019800410198004e009000f4
:1014980080189000701090000001be0000402200eb
:1014a80041972400dafc07004e0190007001980073
:1014b800010998004e00900050089000e10f50007c
:1014c80007003a004e0090008008900070009000dd
:1014d80001f0a2004e0190007001980001099800e7
:1014e8004f05be004f04be000080fa000000060051
:1014f8000600fa00889fbe00000f780012079800c7
:101508002307980018c0b3006011b8001e009000af
:10151800ae00900000fd07000000e000010035006b
:101528000044eb000804e000050032001e009000b3
:10153800ae00900001f0a200100798002107980063
:101548001e007800a0089000100890001e0190006e
:10155800ae01900033fd07000000e0002b003200d0
:101568001e0078001e019000ae019000120898003d
:10157800230898001e019000ae0190000040220050
:1015880041972400a2fc07001e017800101998005a
:10159800211998001e007800c010900030109000ab
:1015a800e00f5000e08f5800180034001e0078004b
:1015b80070029000800a90001e0078008008900059
:1015c800700090000001be000400be006afd070024
:1015d8000004be001e007800c0089000300890008b
:1015e8000001be002dfc07000001be000800be007f
:1015f80087fc0700ccfc07001e017800301198001a
:10160800411198001e007800a8fe07004f04be0094
:101618000080fa00000006000600fa00000f7800bb
:1016280012079800230798001e00780060099000b0
:10163800f00990001e009000ae009000800f51004d
:10164800818f5900070032001e0078001e019000ab
:10165800ae01900062089800730898001e00780098
:1016680092fe07000080fa00000006000600fa005b
:10167800000f780011079800220798002e009000ac
:101688000000e0000c0032001e0078001000780016
:101698009e00780091007800110178009e00780083
:1016a80091009000130020008118dd0082807000f6
:1016b800010878000c0037001e0078001000780040
:1016c8009e00780091007800110178009e00780053
:1016d80091009000130020008118dd008180ea004d
:1016e80081006100010878001e0090000000e00001
:1016f8000c0032001e007800100078009e00780070
:1017080091007800110178009e007800a1009000f7
:10171800130020008118dd00828070000108780025
:101728000c0037001e007800100078009e0078003a
:1017380091007800110178009e007800a1009000c7
:10174800130020008118dd008180ea00810061001b
:10175800010878000080fa00000006000a00fa007c
:101768002007980032079800430798002e00900041
:10177800500890000001eb00800078002e009000d7
:10178800baff07002e0090005008900012002000b9
:10179800800078002e009000b4ff07004008800009
:1017a800c800dd0030088000008040006101b800fa
:1017b8004418dd00cc10de00810070004410dd000c
:1017c800008fbe000000000001003700000000008c
:1017d80040088000c800dd0030088000008040001c
:1017e8006101b8004418dd00cc10de0081007000f3
:1017f8004410dd00be0f5000ae8f580003003100ca
:101808000000200011002000010037006000b8002f
:1018180042088000c811dd003208800002814100c2
:101828006112b8004429dd00cc21de00830171007b
:101838004421dd0000004100818049003e01500044
:10184800ae8158002e009000201090008000eb0020
:10185800800f5100818f5900dcff39002e00900065
:10186800500890000001eb00800078002e009000e6
:101878007eff07000080fa00000006000600fa005c
:10188800200798002e009000c000900030009000c3
:10189800e00f5000e08f580002003a000000eb0013
:1018a8004300370040088000c800dd003008800091
:1018b800008040006101b8004418dd00cc10de0053
:1018c800810070004410dd00008fbe002e009000e3
:1018d800e000900050009000be0f5000ae8f5800fe
:1018e800030036000000200011002000010037002e
:1018f8006000b8003e014000ae8148002e00900014
:10190800e0009000500090000001510081815900d2
:101918002e009000c000900030009000800f510011
:10192800818f5900210039002e0090005008900046
:101938000000e00009003a002e009000901090008e
:101948000010900061004000e08048002e019000e7
:101958000011980011119800080037002e0090001f
:10196800901090000010900061005000e080580036
:101978002e01900000119800111198002e0090007f
:1019880090109000001090000001be002e00900002
:1019980072ff07002e0090001e01be005200980042
:1019a8006300980010002000010037000000eb00e1
:1019b8000080fa00000006000200fa00000f78001c
:1019c8001e007800adff07000000e00002003200b2
:1019d8001e007800b5fd07001e0078008008900002
:1019e800700090006011b8000efc07000000e000d5
:1019f80005003a001e0078002dfd0700e00f50009a
:101a0800e08f58000200320010002000010037006b
:101a18000000eb000080fa00000006006c00fa00ed
:101a2800140107001021ef001221ef000a21ef0036
:101a38000621ef000080eb00700888000080eb00b2
:101a4800600888004003280080088800de22ef0034
:101a580000ff2f0000168800d2c2a800e422a800c8
:101a6800d282a800d2e2a800c0e2a800d3a2a800af
:101a7800120020008000eb000e007800ccfc07006c
:101a8800002e2000000f7800600320000e004000a8
:101a98003200200021002000c5fc0700002e200095
:101aa800301f980002002000834424000e007800b4
:101ab8008ffe070002002000832c24000e0078000f
:101ac80007fd0700600320000e0040000200200010
:101ad8008344240086fe0700600320000e004000b7
:101ae80002002000832c2400fdfc070001003700c1
:101af80000000000a01680004600de006140600083
:101b08000080fb0020408800214080003040800099
:101b1800808f500016003200204080000000e00056
:101b280013003a004040800000f0a7000000ea00df
:101b38000000e9004f00de0040408800404080007f
:101b480000f0a7000000ea000000e9004f00de00f6
:101b5800004078000080fb00610060004300dd0069
:101b6800111680000130a1000100700010168800d5
:101b78002040800030408800a0168000700060007f
:101b880000f0a7000000ea000000e9004f00de00b6
:101b980050408800301780006200600000f0a70005
:101ba8000000ea000000e9004f00de0070408800f5
:101bb8005140800060408000808f50000300320058
:101bc80050408000e10f5000070032007140800053
:101bd80080408000808f50002200320070408000da
:101be800e10f50001f003a000828ef004040800035
:101bf80000f0a7000000ea000000e9004f00de0046
:101c0800004078000080fb00610060004300dd00b8
:101c1800111680000130a100010070001016880024
:101c2800d04080000000ea00d0408800d04080000a
:101c3800cf80de0078fb07000001be000e007800b0
:101c4800a7fc0700d0408000cf80de0072fb0700b1
:101c5800640320000e0242000001be000400780068
:101c68009ffc070050408000604088007040800062
:101c780080408800a01680004d00de0061406000b2
:101c88000080fb00b0408800b04080000000e00009
:101c980002003a00c202a80001003700c202a900ef
:101ca800101680004700de00614060000080fb00e5
:101cb800a0408800a04080000000e00002003a0038
:101cc800c222a80001003700c222a900a016800085
:101cd8004700de00614060000080fb009040880003
:101ce800904080000000e00002003a00c242a800d4
:101cf80001003700c242a90040408000e10f5000b7
:101d08007bff3a000e007800dcfe0700600320002d
:101d18000e004000d9fe070076ff37000000fa00e9
:101d2800c422ef00ca22ef00d022ef00d622ef0033
:101d3800dc22ef00e222ef00e822ef00f06f2c0037
:101d4800001688000080eb0030168800e0012700ac
:101d5800601688000080eb0090168800f03f200095
:101d6800c0168800f01f2300f0168800f03c2f00f2
:101d7800201788006820ef006a20ef00c026ef00d7
:101d8800c626ef00cc26ef00d226ef00d826ef00bb
:101d9800de26ef00e426ef00000c20006019880022
:101da8000080fa00000006000000fa00001023007e
:101db800203a88004827ef007027ef007227ef00cd
:101dc8007427ef003200200080072000a1092000be
:101dd800337420008049780081497800824978006e
:101de8000001eb006004200071052000237420002e
:101df8008049780081497800824978000080fa009b
:041e080000000600d0
:020000040000fa
:101e0c001e08000020000000000000001c0800005c
:101e1c000200000002000000ffff00001808000094
:101e2c00040000000200000001006400000000003b
:101e3c000008000018000000000000000000000076
:020000040000fa
:101e4c000200fa00000f78009e007800e140880044
:101e5c00ffff37000000fa00e081200080077800c7
:101e6c0060832000000188000080fa00000006005a
:101e7c000000fa00a8ff070003000700c9ff0700d5
:101e8c000080fa00000006000000fa000080fa0052
:041e9c00000006003c
:020000040000fa
:020000040002f8
:04aff8009dfb0000bd
:020000040000fa
:020000040002f8
:04affc007f3f000093
:00000001FF
